:100000000C94B3000C94DB000C94DB000C94DB002C
:100010000C94DB000C94DB000C94DB000C94DB00F4
:100020000C94DB000C94DB000C94DB000C94DB00E4
:100030000C94DB000C94DB000C94DB000C94DB00D4
:100040000C94C0070C94DB000C948E070C9468078A
:100050000C94DB000C94DB000C94DB000C94DB00B4
:100060000C94DB000C94DB0000407A10F35A00A0E3
:10007000724E18090010A5D4E80000E87648170071
:1000800000E40B54020000CA9A3B000000E1F505B1
:10009000000080969800000040420F000000A086FB
:1000A00001000000102700000000E803000000002D
:1000B0006400000000000A000000000001000000D1
:1000C00000002C76D888DC674F0823DFC1DFAE59EB
:1000D000E1B1B796E5E3E453C63AE651997696E87E
:1000E000E6C28426EB898C9B62ED407C6FFCEFBC02
:1000F0009C9F40F2BAA56FA5F490055A2AF75C932D
:100100006B6CF9676DC11BFCE0E40D47FEF520E662
:10011000B500D0ED902E0300943577050080841E45
:10012000080000204E0A000000C80C333333330FA0
:10013000986E12831141EF8D2114893BE65516CF3D
:10014000FEE6DB18D1844B381BF77C1D901DA4BB49
:10015000E424203284725E228100C9F124ECA1E5FE
:100160003D270A08A30911241FBECFEFD8E0DEBF48
:10017000CDBF11E0A0E0B1E0E0EDFEE102C00590EE
:100180000D92AA36B107D9F722E0AAE6B1E001C084
:100190001D92A83CB207E1F710E0C2EBD0E004C02A
:1001A0002197FE010E94160EC13BD107C9F70E949C
:1001B000B4080C945B0F0C940000CF92DF92EF9286
:1001C000FF920F931F93CF93DF936C017A018B0102
:1001D000C0E0D0E0CE15DF0589F0D8016D918D012A
:1001E000D601ED91FC910190F081E02DC6010995B9
:1001F000892B11F47E0102C02196ECCFC701DF915B
:10020000CF911F910F91FF90EF90DF90CF900895C5
:10021000089580E090E00895FC01538D448D252FD2
:1002200030E0842F90E0821B930B541710F0CF9690
:10023000089501970895FC01918D828D981761F0C2
:10024000828DDF01A80FB11D5D968C91928D9F5F0D
:100250009F73928F90E008958FEF9FEF0895FC01B8
:10026000918D828D981731F0828DE80FF11D858D6B
:1002700090E008958FEF9FEF0895FC01918D228DFE
:10028000892F90E0805C9F4F821B91098F73992783
:1002900008958CE891E00E943D0121E0892B09F44A
:1002A00020E0822F0895FC01848DDF01A80FB11D8D
:1002B000A35ABF4F2C91848D90E001968F7399279C
:1002C000848FA689B7892C93A089B1898C91806489
:1002D0008C93938D848D981306C00288F389E02D4A
:1002E00080818F7D80830895EF92FF920F931F93FB
:1002F000CF93DF93EC0181E0888F9B8D8C8D9813D9
:1003000005C0E889F989808185FD24C0F62E0B8D12
:1003100010E00F5F1F4F0F731127E02E8C8DE81236
:100320000CC00FB607FCFACFE889F989808185FFF8
:10033000F5CFCE010E945301F1CF8B8DFE01E80F66
:10034000F11DE35AFF4FF0820B8FEA89FB89808110
:10035000806207C0EE89FF896083E889F98980811E
:100360008064808381E090E0DF91CF911F910F91B5
:10037000FF90EF900895CF93DF93EC01888D882351
:10038000C9F0EA89FB89808185FD05C0A889B98902
:100390008C9186FD0FC00FB607FCF5CF808185FFDD
:1003A000F2CFA889B9898C9185FFEDCFCE010E944B
:1003B0005301E7CFDF91CF9108953FB7F894809133
:1003C000730190917401A0917501B091760126B5E9
:1003D000A89B05C02F3F19F00196A11DB11D3FBF7D
:1003E000BA2FA92F982F8827820F911DA11DB11D0B
:1003F000BC01CD0142E0660F771F881F991F4A9507
:10040000D1F708958F929F92AF92BF92CF92DF92D1
:10041000EF92FF926B017C010E94DD014B015C01B8
:10042000C114D104E104F104F1F00E94DD01DC010A
:10043000CB0188199909AA09BB09883E9340A105F7
:10044000B10570F321E0C21AD108E108F10888EE85
:10045000880E83E0981EA11CB11CC114D104E104D4
:10046000F10419F7DDCFFF90EF90DF90CF90BF90B0
:10047000AF909F908F9008952FB7F89460916F017F
:100480007091700180917101909172012FBF089558
:10049000CF93DF93EC0180917801882359F080910C
:1004A000840190918501DC01ED91FC910190F08136
:1004B000E02D09958E81811108C062E070E080E036
:1004C00090E0DF91CF910C940202DF91CF910895DB
:1004D00008950F931F93CF93DF93EC011F828881C0
:1004E0008823E1F000E010E0288530E088899989D0
:1004F000021713077CF49801220F331FFC01E20F4F
:10050000F31F80819181009711F00E94B10E0F5F5F
:100510001F4FEACF18860E94B10E18828981882366
:1005200029F08A899B890E94B10E1982DF91CF91AF
:100530001F910F9108950E94490F8F929F92AF9241
:10054000BF92CF92DF92EF92FF920F931F93CF93C0
:10055000DF931F92CDB7DEB77C018B010E943C0276
:1005600080906A0190906B01A0906C01B0906D0139
:10057000DC01CB0188199909AA09BB09813D974083
:10058000A105B10548F089288A288B2829F0D701D0
:1005900017968C9181111EC20E943C0260936A01E1
:1005A00070936B0180936C0190936D01F7019781BB
:1005B000911114C00F3F110589F4C7010E9469020F
:1005C00081E0D70117968C93179751961C921E9233
:1005D000509753961C921E9252971FC0F701848524
:1005E000843041F4992309F4F9C1168615860787EA
:1005F00085E0C5C0853059F5992309F4EFC1D701CD
:100600002785C22ED12C8FEF90E08C199D09801781
:100610009107B9F5211104C089E01C968C93DEC1C5
:10062000C601880F991F0E941C0EF701918B808BC9
:1006300011E01083C6010E941C0ED70153969C93B3
:100640008E93529711961C93119786E0E6CF8630D1
:10065000D9F0873009F053C0992309F4BFC1F701DD
:10066000258530E00288F389E02DE20FF31F6081D9
:10067000862F90E04FEF50E0481B590B4017510771
:1006800079F0F701178263C1992309F4A7C1D70153
:1006900085850288F389E02DE80FF11D008368C08D
:1006A000220F331FD70150960D911C91519766234D
:1006B00069F0020F131F0E941C0EF80191838083C2
:1006C000D7011C968C911C978F5F12C0F801E20F26
:1006D000F31F11821082F701168685858F5F85874B
:1006E0009785891303C089E0848704C086E0D70119
:1006F0001C968C93F70180858F5F80876FC188304F
:1007000009F03FC0992309F469C1D7018585208983
:100710009189E22FF92FE80FF11DE80FF11D80817B
:100720009181009759F01E962C911E9731E0320F5F
:100730001E963C93FC01E20FF11D0083F7018585B5
:100740000288F389E02DE80FF11DD7011E962C9148
:100750001E979081291342C11E961C921E978F5F8F
:100760001D968C931D971F969C911F97891305C00A
:100770001C968C911C978F5F50CF86E0F701848781
:100780002DC1893009F0E7C0992309F427C1048BF2
:100790000111DDC0178280913302882339F02FE5E3
:1007A000C22E22E0D22E00E010E09AC0F70183852D
:1007B000823051F412828381882309F4A5C0058810
:1007C000F689E02D80E00BC0813059F4828383816B
:1007D000882309F499C00588F689E02D81E0099500
:1007E00093C0833081F41F9281E08F931F921F92F8
:1007F000FF92EF920E94FC040F900F900F900F90C9
:100800000F900F9081C0853009F07EC0F7010289FA
:100810001389D8018C91882331F00088F189E02D6B
:100820006081718102C060E070E04BE050E08CE2DA
:1008300091E00E944E0F892B09F066C01982F801E1
:100840006181062F10E080E090E040E050E08017EA
:100850009107A4F4662341F0F701A089B1891296AB
:100860002D913C91139702C020E030E0D901A80FF0
:10087000B91F2C91420F511D0196E9CF498384E0A5
:1008800090E00E941C0E8C01DC0113961C921397C1
:1008900081E08C93CE01019612969C938E931197D2
:1008A00084E090E00E941C0EFC01138287E18083AB
:1008B00088E391E0928381831F930F93FF93EF93DB
:1008C00082E08F9385E08F931F921F92FF92EF92A9
:1008D0000E94FC040FB6F894DEBF0FBECDBF14C05B
:1008E0008091BD0290E00817190774F4D6018D912C
:1008F0009D916D01DC01ED91FC910190F081E02D65
:1009000009950F5F1F4FECCFF70184818823F9F021
:1009100081858823E1F0C7010E94BF06D701509668
:100920000D911C91519752962D913C91539757964A
:10093000ED91FC9158971F964C911F971B966C91C7
:100940001B9719968C910995C7010E949D06C701B6
:100950000E94690243C0992309F440C0813001F527
:10096000602FF7010187002391F1948191112FC02D
:100970002091BD0230E0EFE5F2E040E050E04217A8
:10098000530754F4A191B19113967C91671301C060
:1009900091E04F5F5F4FF3CF992309F472CE17C0F8
:1009A000823089F402872FEF30E0201B310994E078
:1009B000359527959A95E1F70F7010E020173107CC
:1009C00031F0178204C0833011F4F70103878F5F81
:1009D000D70123CEC7010E946902DECD0F90DF91BF
:1009E000CF911F910F91FF90EF90DF90CF90BF902C
:1009F000AF909F908F9008954F925F927F928F92C9
:100A00009F92AF92BF92CF92DF92EF92FF920F939D
:100A10001F93CF93DF93CDB7DEB76B970FB6F894E4
:100A2000DEBF0FBECDBF0DA51EA57FA4CAA80E9424
:100A30003C028090880190908901A0908A01B0903A
:100A40008B01772009F4A1C020918701222309F4AA
:100A50009CC081149104A104B10409F496C0DC0186
:100A6000CB0188199909AA09BB090196A11DB11DDD
:100A7000883C9105A105B10508F087C080918601E9
:100A800028EC820E911CA11CB11C882309F460C0C3
:100A90001A861B861C861D861E861F86188A1D8A3E
:100AA000198619821A821092290218861B821C82CA
:100AB0001D821E821F82CE0101967C0190938301CC
:100AC0008093820181E0809381010E943C0268153D
:100AD00079058A059B0508F580918401909185012F
:100AE000DC01ED91FC910084F185E02D0995892BC5
:100AF00061F38091840190918501DC01ED91FC917D
:100B00000284F385E02D09958F3FBFEF9B07E9F243
:100B1000BC01C7010E949D02D8CF88858111DCCF1E
:100B20001092830110928201109281012EC0F8016F
:100B30008781882351F18091840190918501DC01A6
:100B4000ED91FC910084F185E02D0995892B41F40C
:100B50000E943C02681579058A059B0560F3E7CF82
:100B60008091840190918501DC01ED91FC910284DA
:100B7000F385E02D09958F3FBFEF9B0749F3BC013B
:100B80008AE292E00E949D02E3CF81E08093870198
:100B90007E01F3E3EF0EF11C6FEFC8010E944802E3
:100BA00062E1C8010E944802672DC8010E94480204
:100BB0000E94440A20E130E040E050E00E94B30D82
:100BC000962F909520E1929FC00111246F70682BA1
:100BD000C8010E94480269A9C8010E9448026C2D00
:100BE000C8010E9448026C2D6095C8010E9448020D
:100BF000A12CB12CD12CAC14BD04DCF5470182E052
:100C0000880E911CD701ED90FC90F7016081C8011E
:100C10000E944802D7016C916095C8010E94480269
:100C2000412C512CF701808190E0481659067CF444
:100C3000D7011196ED91FC911297E40DF51D60819D
:100C4000C8010E944802BFEF4B1A5B0AEBCFE114C8
:100C5000F10451F08381882321F0818192810E94E7
:100C6000B10EC7010E94B10EFFEFAF1ABF0A7401A7
:100C7000C2CF60E0C8010E944802772079F00E944C
:100C80003C02DC01CB010196A11DB11D80938801BE
:100C900090938901A0938A01B0938B016B960FB654
:100CA000F894DEBF0FBECDBFDF91CF911F910F91A2
:100CB000FF90EF90DF90CF90BF90AF909F908F907C
:100CC0007F905F904F9008950F931F93CF93DF9382
:100CD000FC0101900020E9F73197EF01C81BD90B07
:100CE00039F18C0184E090E00E941C0EFC0113821B
:100CF0009E01CF3FD10519F014F02FEF30E0208393
:100D000012830183FF93EF9381E08F938F931F9260
:100D100083E28F938AE292E09F938F930E94FC0478
:100D20008DB79EB708960FB6F8949EBF0FBE8DBFC5
:100D3000DF91CF911F910F910895CF93DF93EC0135
:100D4000809186018823C1F080912902811114C00D
:100D50001092860181E08E831F9284E08F931F9210
:100D60001F92DF93CF930E94FC041E820F900F907E
:100D70000F900F900F900F90DF91CF910895CF9328
:100D8000DF93EC0180918601882321F08091290274
:100D90008823A1F081E0809386018E831F9283E0F7
:100DA0008F931F921F92DF93CF930E94FC041E82A9
:100DB0000F900F900F900F900F900F90DF91CF91A9
:100DC0000895CF93DF93DC0113964C91209181011C
:100DD000222329F0E0918201F091830102C0EAE22E
:100DE000F2E03185431330C0222329F0E0918201E3
:100DF000F091830102C0EAE2F2E023852F3F69F41B
:100E0000FC012281222301F120918601222371F02D
:100E10002091290221110AC017C0DC01ED91FC913B
:100E20000280F381E02DDF91CF910994EC018AE2F9
:100E300092E00E94BF06EC81FD8109958AE292E072
:100E4000DF91CF910C949D06DF91CF910895CF93C0
:100E5000DF9380917701811132C08091840190915C
:100E60008501DC01ED91FC910084F185E02D09956F
:100E7000892B29F18091840190918501DC01ED910C
:100E8000FC910284F385E02D0995EC01BC017727E4
:100E90008AE292E00E949D0280912F028823E9F26B
:100EA0008AE292E00E94BF06E0914302F091440280
:100EB0008C2F09958AE292E00E949D06CECFDF91A9
:100EC000CF9108950E94490181110C94270708953C
:100ED0001F920F920FB60F9211242F933F934F93AF
:100EE0005F936F937F938F939F93AF93BF93EF9392
:100EF000FF938CE891E00E945301FF91EF91BF9125
:100F0000AF919F918F917F916F915F914F913F91A1
:100F10002F910F900FBE0F901F9018951F920F9258
:100F20000FB60F9211242F938F939F93EF93FF93FC
:100F3000E0919C01F0919D018081E091A201F091EE
:100F4000A30182FD12C090818091A5018F5F8F73F4
:100F50002091A601821751F0E091A501F0E0E4573D
:100F6000FE4F958F8093A50101C08081FF91EF9185
:100F70009F918F912F910F900FBE0F901F901895FA
:100F80001F920F920FB60F9211242F933F938F93BE
:100F90009F93AF93BF9380916F0190917001A09147
:100FA0007101B091720130916E0123E0230F2D3752
:100FB00020F40196A11DB11D05C026E8230F02965D
:100FC000A11DB11D20936E0180936F01909370015C
:100FD000A0937101B093720180917301909174019B
:100FE000A0917501B09176010196A11DB11D80936C
:100FF000730190937401A0937501B0937601BF9132
:10100000AF919F918F913F912F910F900FBE0F90B5
:101010001F90189510928F0110928E0188EE93E028
:10102000A0E0B0E08093900190939101A093920191
:10103000B09393018EE091E090938D0180938C01A9
:1010400085EC90E0909399018093980184EC90E076
:1010500090939B0180939A0180EC90E090939D0186
:1010600080939C0181EC90E090939F0180939E017E
:1010700082EC90E09093A1018093A00186EC90E037
:101080009093A3018093A2011092A5011092A60152
:101090001092A7011092A80110923302109234020C
:1010A00010923502109236021092370210923802D6
:1010B0001092390210923E021092320210922A02CD
:1010C00010922B02109229021092310210922C02DF
:1010D00010922D0210922E0210922F0210923002C6
:1010E00010924602109248021092470210924A0251
:1010F0001092490210924B0281E0809345021092B7
:101100004C0210924D0210924E0210925002109218
:101110004F021092520210925102109254021092F9
:10112000530210925502109258021092570283E215
:101130008093C1021092C002E091BD02EF3269F0CB
:1011400081E08E0F8093BD02F0E0EE0FFF1FE15AA9
:10115000FD4F8EEB92E09183808388E291E0909343
:10116000BF028093BE020895789484B5826084BDE6
:1011700084B5816084BD85B5826085BD85B581609B
:1011800085BD80916E00816080936E001092810019
:1011900080918100826080938100809181008160D4
:1011A0008093810080918000816080938000809195
:1011B000B10084608093B1008091B0008160809321
:1011C000B00080917A00846080937A0080917A00E8
:1011D000826080937A0080917A00816080937A00A7
:1011E00080917A00806880937A001092C10080918B
:1011F0007801811150C08CE891E090938501809333
:101200008401E0919C01F0919D0192E09083E09136
:101210009801F09199011082E0919A01F0919B015F
:1012200080E180831092A401E091A001F091A101DE
:1012300086E08083E0919E01F0919F018081806132
:101240008083E0919E01F0919F018081886080837E
:10125000E0919E01F0919F01808180688083E09100
:101260009E01F0919F0180818F7D80831092770194
:1012700081E0809378011F929F931F921F928AE2D0
:1012800092E09F938F930E94FC040F900F900F9019
:101290000F900F900F90C0E4C0937C0080917A0073
:1012A000806480937A0080917A0086FDFCCF609103
:1012B00078008091790070E0782B072E000C880B65
:1012C000990B0E94BA0C20E030E040EA50E40E9402
:1012D000F50C20E030E048EC52E40E94F50C20E0F0
:1012E00030E040E85AE30E94F50C60937D01709372
:1012F0007E0180937F019093800109E711E021E056
:1013000044E00E94D60980E591E00E94640668E707
:1013100075E080E090E00E940202C8010E9464062D
:1013200064E175E080E090E00E94020282E691E0D4
:101330000E94640668EB7BE080E090E00E9402027D
:101340000E946207A9CFCF93DF9380915502882333
:1013500001F18091570290915802892BD1F0C0E0A1
:10136000D0E02091550230E08091570290915802D0
:10137000C217D30764F49E01220F331FFC01E20F52
:10138000F31F808191810E94B10E2196EACF0E94C5
:10139000B10E80914F0290915002009721F0DF91A1
:1013A000CF910C94B10EDF91CF910895EF920F93EE
:1013B0001F93CF93DF93E80147FD02C034E001C0E3
:1013C00034E1E42F440FFF0BF7FF03C0F195E195E3
:1013D000F109E32E022F2E2FAE010E94520ACE01F8
:1013E000DF91CF911F910F91EF9008958F929F926F
:1013F000AF92BF92CF92DF92EF92FF92CF93DF93A3
:10140000EC01688179818A819B8161157105810573
:10141000910521F464E279ED8BE597E02DE133EF5E
:1014200041E050E00E94B30D49015A019B01AC011B
:10143000A7EAB1E40E94D20D6B017C01ACEEB4EFDF
:10144000A50194010E94E00DDC01CB018C0D9D1DD6
:10145000AE1DBF1DB7FF03C00197A109B048888327
:101460009983AA83BB83BC01CD019F77DF91CF9184
:10147000FF90EF90DF90CF90BF90AF909F908F90B4
:1014800008950E94F609089580E091E00E94F6090F
:10149000089560930001709301018093020190937D
:1014A000030108954F925F926F927F929F92AF9245
:1014B000BF92CF92DF92EF92FF920F931F93CF9341
:1014C000DF93CDB7DEB729970FB6F894DEBF0FBE16
:1014D000CDBF6A01122FB02E2BE3201720F0FF247E
:1014E000F394F00E02C0BCE3FB2E0F2D27E0AE01FB
:1014F0004F5F5F4F0E94E00BAC018981982F99707C
:10150000913031F0E1FC06C0E0FE06C090E205C07B
:101510009DE203C09BE201C090E0EE2DE07183FFED
:101520003CC0911102C083E001C084E0811718F42F
:10153000212F281B01C020E0E1110BC0F601822FF2
:1015400030E2882319F031938150FBCFC20ED11CB9
:1015500020E0992329F0D6019C93F60131966F0182
:10156000C6010396E2FE0AC03EE4D6013C9341E484
:1015700011964C93119712963C9306C03EE6F601E5
:10158000308341E641833283FC01322F40E2332332
:1015900009F442C041933150FACF82FF44C0911107
:1015A00002C083E001C084E0811718F4212F281BBA
:1015B00001C020E0E1110BC0F601822F30E2882348
:1015C00019F031938150FBCFC20ED11C20E099233A
:1015D00029F0D6019C93F60131966F01C60103965E
:1015E000E2FE0BC039E4D6013C933EE411963C93F5
:1015F000119736E412963C9307C039E6F601308322
:101600003EE6318336E63283FC01322F40E233235B
:1016100019F041933150FBCFFC01E20FF11D108214
:101620008EEF9FEFB7C0F1E0911101C0F0E06F2F96
:1016300070E01416150624F49A012F5F3F4F02C084
:1016400021E030E0260F371FBB2029F06B2D70E022
:101650006F5F7F4F02C060E070E0260F371F612F81
:1016600070E0261737071CF4121B212F01C020E061
:101670003E2D387159F4D601322F60E2332319F030
:101680006D933150FBCFC20ED11C20E0FF2331F00F
:10169000D6019C93B6016F5F7F4F6B01E1110BC0C8
:1016A000F601922F30E3992319F031939150FBCF3B
:1016B000C20ED11C20E09F2D940F3A81782F7071BB
:1016C000A72E84FF03C0313309F49150191624F476
:1016D000993018F098E001C091E0E42F852F57FF72
:1016E00002C0E0E080E06E2F782FE0E0F0E0AEE2B4
:1016F0009A2E3A01691A71082A01461A570A0B2DC7
:1017000010E01195019511096F3F8FEF780729F4CB
:10171000D6019C92C60101966C014617570784F0CA
:10172000661677066CF47F01E40CF51CA1E0B0E0CE
:10173000AC0FBD1FEA0EFB1ED7011196BC9002C074
:1017400090E3B92E615071093196C60101967C0172
:101750006017710724F0D601BC926C01D5CF6417D5
:10176000750741F4363320F4353321F4A11002C05B
:1017700081E3B82EF601B082F701822F90E2882330
:1017800019F091938150FBCFF701E20FF11D108208
:1017900080E090E029960FB6F894DEBF0FBECDBF73
:1017A000DF91CF911F910F91FF90EF90DF90CF903D
:1017B000BF90AF909F907F906F905F904F900895F3
:1017C000283008F027E03327DA01990F311D87FD13
:1017D000916000966105710539F432602E5F3D938A
:1017E00030E32A95E1F708959F3F30F08038710586
:1017F000610509F03C5F3C5F3D93913008F08068E3
:10180000911DDF93CF931F930F93FF92EF92192FA8
:10181000987F9695E92F96959695E90FFF27EE53B9
:10182000FF4F99273327EE24FF24A701E7010590F6
:101830000894079428F4360FE71EF81E491F511D1F
:10184000660F771F881F991F0694A1F705900794CC
:1018500028F4E70EF81E491F561FC11D770F881F79
:10186000991F661F0694A1F70590079428F4F80EB7
:10187000491F561FC71FD11D880F991F661F771F4D
:101880000694A1F70590079420F4490F561FC71F2F
:10189000D81F990F661F771F881F0694A9F7849198
:1018A0001095177041F0D695C79557954795F794C1
:1018B000E7941A95C1F7E8E6F0E068941590159161
:1018C00035916591959105907FE27395E118F10A44
:1018D000430B560BC90BD009C0F7E10CF11E431F97
:1018E000561FC91FD01D7EF4703311F48A95E6CFC0
:1018F000E894015030F0080F0AF40027021708F4AA
:10190000202F2395022F7A3328F079E37D932A95AF
:10191000E9F710C07D932A9589F606949795679507
:10192000379517951794E118F10A430B560BC90B1D
:10193000D00998F023957E9173957A3308F070E37F
:101940007C932013B8F77E9170617D9330F083957E
:1019500071E37D9370E32A95E1F71124EF90FF90F6
:101960000F911F91CF91DF91992787FD9095089551
:10197000E89409C097FB3EF4909580957095619529
:101980007F4F8F4F9F4F9923A9F0F92F96E9BB27DF
:101990009395F695879577956795B795F111F8CF5B
:1019A000FAF4BB0F11F460FF1BC06F5F7F4F8F4FC6
:1019B0009F4F16C0882311F096E911C0772321F0BC
:1019C0009EE8872F762F05C0662371F096E8862F54
:1019D00070E060E02AF09A95660F771F881FDAF7AB
:1019E000880F9695879597F908950E94080D0C9495
:1019F000790D0E946B0D38F00E94720D20F0952336
:101A000011F00C94620D0C94680D11240C94AD0D22
:101A10000E948A0D70F3959FC1F3950F50E0551FFA
:101A2000629FF001729FBB27F00DB11D639FAA2733
:101A3000F00DB11DAA1F649F6627B00DA11D661F82
:101A4000829F2227B00DA11D621F739FB00DA11DA3
:101A5000621F839FA00D611D221F749F3327A00D5D
:101A6000611D231F849F600D211D822F762F6A2FF9
:101A700011249F5750409AF0F1F088234AF0EE0F5E
:101A8000FF1FBB1F661F771F881F91505040A9F78B
:101A90009E3F510580F00C94620D0C94AD0D5F3F9C
:101AA000E4F3983ED4F3869577956795B795F795C7
:101AB000E7959F5FC1F7FE2B880F911D969587953F
:101AC00097F9089597F99F6780E870E060E00895BE
:101AD0009FEF80EC089500240A9416161706180646
:101AE0000906089500240A94121613061406050622
:101AF0000895092E0394000C11F4882352F0BB0FB3
:101B000040F4BF2B11F460FF04C06F5F7F4F8F4F15
:101B10009F4F089557FD9058440F551F59F05F3F50
:101B200071F04795880F97FB991F61F09F3F79F0FF
:101B300087950895121613061406551FF2CF469581
:101B4000F1DF08C0161617061806991FF1CF869503
:101B50007105610508940895E894BB2766277727E7
:101B6000CB0197F90895052E97FB1EF400940E946F
:101B7000CA0D57FD07D00E94E50D07FC03D04EF4B7
:101B80000C94CA0D50954095309521953F4F4F4F7D
:101B90005F4F089590958095709561957F4F8F4F19
:101BA0009F4F08950E94070EA59F900DB49F900D22
:101BB000A49F800D911D11240895B7FF0C94D20DA0
:101BC0000E94D20D821B930B0895A1E21A2EAA1B2C
:101BD000BB1BFD010DC0AA1FBB1FEE1FFF1FA217DD
:101BE000B307E407F50720F0A21BB30BE40BF50BDA
:101BF000661F771F881F991F1A9469F76095709563
:101C0000809590959B01AC01BD01CF010895A29FE5
:101C1000B001B39FC001A39F700D811D1124911DC0
:101C2000B29F700D811D1124911D0895EE0FFF1FAD
:101C30000590F491E02D0994CF93DF9382309105C4
:101C400010F482E090E0E091C602F091C70220E03B
:101C500030E0C0E0D0E0309711F140815181481769
:101C60005907C0F04817590761F482819381209782
:101C700019F09B838A832BC09093C7028093C6027E
:101C800026C02115310519F04217530718F49A019F
:101C9000BE01DF01EF010280F381E02DDCCF2115D1
:101CA000310509F1281B390B2430310590F41296C7
:101CB0008D919C9113976115710521F0FB01938320
:101CC000828304C09093C7028093C602FD013296BE
:101CD00044C0FD01E20FF31F81939193225031091B
:101CE0002D933C933AC02091C4023091C502232B1E
:101CF00041F420910601309107013093C5022093F1
:101D0000C40220910401309105012115310541F4EF
:101D10002DB73EB74091080150910901241B350BA6
:101D2000E091C402F091C502E217F307A0F42E1B64
:101D30003F0B2817390778F0AC014E5F5F4F24172F
:101D4000350748F04E0F5F1F5093C5024093C40201
:101D50008193919302C0E0E0F0E0CF01DF91CF9159
:101D600008950F931F93CF93DF93009709F48CC0CE
:101D7000FC013297138212820091C6021091C702B1
:101D80000115110581F420813181820F931F20916B
:101D9000C4023091C5022817390779F5F093C502BE
:101DA000E093C40271C0D80140E050E0AE17BF0715
:101DB00050F412962D913C911397AD0121153105E8
:101DC00009F1D901F3CF9D01DA01338322836081C8
:101DD0007181860F971F8217930769F4EC012881A0
:101DE0003981260F371F2E5F3F4F318320838A8131
:101DF0009B8193838283452B29F4F093C702E09360
:101E0000C60242C01396FC93EE931297ED014991DE
:101E100059919E01240F351FE217F30771F4808159
:101E20009181840F951F029611969C938E938281C7
:101E3000938113969C938E931297E0E0F0E0D80183
:101E400012968D919C911397009719F0F8018C01CF
:101E5000F6CF8D919C9198012E5F3F4F820F931F7B
:101E60002091C4023091C5022817390769F43097D0
:101E700029F41092C7021092C60202C01382128285
:101E80001093C5020093C402DF91CF911F910F916F
:101E9000089581E090E0F8940C945B0FFB01DC0165
:101EA00004C08D910190801921F441505040C8F731
:101EB000881B990B089510E0C2EBD0E004C0FE012E
:101EC0000E94160E2196C33BD107C9F7F894FFCFA5
:101ED000010000000000C802800000000000740142
:101EE000DD000C01BB013D011B012F0100000000C2
:101EF000E106680200000000E10668024172652008
:101F0000796F75206F6B3F005975702C2049276DD4
:101F1000206665656C696E67206772656174210073
:101F200054656D7072617475726520657175616C50
:0A1F3000730043656C73697573005C
:00000001FF
