:100000000C9462000C948A000C948A000C948A0070
:100010000C948A000C948A000C948A000C948A0038
:100020000C948A000C948A000C948A000C948A0028
:100030000C948A000C948A000C948A000C948A0018
:100040000C94E8020C948A000C94B6020C94900272
:100050000C948A000C948A000C948A000C948A00F8
:100060000C948A000C948A000000000024002700F1
:100070002A000000000023002600290000000000E4
:10008000250028002B0004040404040404040202D4
:100090000202020203030303030301020408102007
:1000A0004080010204081020010204081020000012
:1000B0000008000201000003040700000000000027
:1000C0000000B50411241FBECFEFD8E0DEBFCDBFC6
:1000D00011E0A0E0B1E0E0E6FAE002C005900D9288
:1000E000AE31B107D9F721E0AEE1B1E001C01D9218
:1000F000A43CB207E1F710E0C2E6D0E004C02197CB
:10010000FE010E942305C136D107C9F70E9477037B
:100110000C942E050C940000E0EBF0E02491ECE947
:10012000F0E09491E8E8F0E0E491EE2309F43BC0BC
:10013000222339F1233091F038F42130A9F0223014
:1001400001F524B52F7D12C0273091F02830A1F0A1
:100150002430B9F4209180002F7D03C020918000CD
:100160002F77209380000DC024B52F7724BD09C0C0
:100170002091B0002F7703C02091B0002F7D2093F5
:10018000B000F0E0EE0FFF1FE458FF4FA591B491CF
:100190002FB7F894EC91811103C090959E2301C074
:1001A0009E2B9C932FBF0895CF92DF92EF92FF92E8
:1001B0000F931F93CF93DF936C017A018B01C0E003
:1001C000D0E0CE15DF0589F0D8016D918D01D60103
:1001D000ED91FC910190F081E02DC6010995892BEC
:1001E00011F47E0102C02196ECCFC701DF91CF91BF
:1001F0001F910F91FF90EF90DF90CF900895089599
:1002000080E090E00895FC01538D448D252F30E06F
:10021000842F90E0821B930B541710F0CF96089513
:1002200001970895FC01918D828D981761F0828D60
:10023000DF01A80FB11D5D968C91928D9F5F9F731A
:10024000928F90E008958FEF9FEF0895FC01918DBC
:10025000828D981731F0828DE80FF11D858D90E029
:1002600008958FEF9FEF0895FC01918D228D892FC6
:1002700090E0805C9F4F821B91098F7399270895AE
:1002800087E291E00E94340121E0892B09F420E00B
:10029000822F0895FC01848DDF01A80FB11DA35AA0
:1002A000BF4F2C91848D90E001968F739927848F96
:1002B000A689B7892C93A089B1898C9180648C938D
:1002C000938D848D981306C00288F389E02D808178
:1002D0008F7D80830895EF92FF920F931F93CF93AA
:1002E000DF93EC0181E0888F9B8D8C8D981305C086
:1002F000E889F989808185FD24C0F62E0B8D10E0F8
:100300000F5F1F4F0F731127E02E8C8DE8120CC06A
:100310000FB607FCFACFE889F989808185FFF5CF10
:10032000CE010E944A01F1CF8B8DFE01E80FF11D35
:10033000E35AFF4FF0820B8FEA89FB89808180624C
:1003400007C0EE89FF896083E889F989808180642C
:10035000808381E090E0DF91CF911F910F91FF901A
:10036000EF900895CF93DF93EC01888D8823C9F037
:10037000EA89FB89808185FD05C0A889B9898C91AE
:1003800086FD0FC00FB607FCF5CF808185FFF2CF49
:10039000A889B9898C9185FFEDCFCE010E944A01D1
:1003A000E7CFDF91CF91089580E090E0892B29F08D
:1003B0000E94400181110C94000008953FB7F89409
:1003C0008091230190912401A0912501B0912601F3
:1003D00026B5A89B05C02F3F19F00196A11DB11DA0
:1003E0003FBFBA2FA92F982F8827820F911DA11DDB
:1003F000B11DBC01CD0142E0660F771F881F991F18
:100400004A95D1F70895009769F0FC01019000200A
:10041000E9F73197AF01481B590BBC0187E291E026
:100420000C94D40080E090E008958F929F92AF9258
:10043000BF92CF92DF92EF92FF920F931F93CF93D1
:10044000DF93CDB7DEB7A1970FB6F894DEBF0FBE2E
:10045000CDBF6B017C0197FF31C0E0912701F09186
:1004600028010190F081E02D6DE287E291E009958D
:100470008C0122273327A9012C193D094E095F0958
:1004800019A2CE0181967C019AE0892E912CA12C93
:10049000B12CCA01B901A50194010E94E204605D7A
:1004A000F70162937F01211531054105510589F757
:1004B000CF010E940302800F911F1DC09B01AC0160
:1004C00019A28E010F5D1F4F8AE0C82ED12CE12C9E
:1004D000F12CCA01B901A70196010E94E204605DF6
:1004E000F80162938F01211531054105510589F706
:1004F000CF010E940302A1960FB6F894DEBF0FBE93
:10050000CDBFDF91CF911F910F91FF90EF90DF90C2
:10051000CF90BF90AF909F908F9008950E94290533
:100520001F920F920FB60F9211242F933F934F9368
:100530005F936F937F938F939F93AF93BF93EF934B
:10054000FF9387E291E00E944A01FF91EF91BF91F2
:10055000AF919F918F917F916F915F914F913F915B
:100560002F910F900FBE0F901F9018951F920F9212
:100570000FB60F9211242F938F939F93EF93FF93B6
:10058000E0913701F09138018081E0913D01F091D7
:100590003E0182FD12C09081809140018F5F8F7378
:1005A00020914101821751F0E0914001F0E0E95DB6
:1005B000FE4F958F8093400101C08081FF91EF91A4
:1005C0009F918F912F910F900FBE0F901F901895B4
:1005D0001F920F920FB60F9211242F933F938F9378
:1005E0009F93AF93BF9380911F0190912001A091A1
:1005F0002101B091220130911E0123E0230F2D37FC
:1006000020F40196A11DB11D05C026E8230F029616
:10061000A11DB11D20931E0180931F019093200105
:10062000A0932101B0932201809123019091240194
:10063000A0912501B09126010196A11DB11D8093C5
:10064000230190932401A0932501B0932601BF912B
:10065000AF919F918F913F912F910F900FBE0F906F
:100660001F901895CF92DF92EF92FF920F931F93F6
:10067000E82FF92F05C0015011092109310961F155
:10068000908196239417B9F305C0015011092109EF
:10069000310911F1908196239413F7CFC12CD12CFD
:1006A000E12CF12C0AC08FEFC81AD80AE80AF80A20
:1006B0000C151D052E053F0579F0808186238417D2
:1006C00091F36C2D7D2D8E2D9F2D1F910F91FF90FD
:1006D000EF90DF90CF90089560E070E080E090E0D0
:1006E0001F910F91FF90EF90DF90CF900895789435
:1006F00084B5826084BD84B5816084BD85B5826027
:1007000085BD85B5816085BD80916E0081608093D7
:100710006E00109281008091810082608093810040
:100720008091810081608093810080918000816050
:10073000809380008091B10084608093B1008091AB
:10074000B00081608093B00080917A0084608093D3
:100750007A0080917A00826080937A0080917A009A
:10076000816080937A0080917A00806880937A001B
:100770001092C100E0913701F091380182E080834E
:10078000E0913301F09134011082E0913501F09154
:1007900036018FEC808310923F01E0913B01F09194
:1007A0003C0186E08083E0913901F0913A0180813B
:1007B00080618083E0913901F0913A018081886005
:1007C0008083E0913901F0913A01808180688083D3
:1007D000E0913901F0913A0180818F7D8083ECE9CD
:1007E000F0E02491E8E8F0E08491882399F090E02B
:1007F000880F991FFC01E859FF4FA591B491FC01A6
:10080000E458FF4F859194918FB7F894EC91E22BC7
:10081000EC938FBFEEE9F0E02491EAE8F0E08491F8
:100820008823C1F090E0880F991FFC01E859FF4F21
:10083000C591D491FC01E458FF4FA591B4919FB7A5
:10084000F8948881E22FE0958E2388838C91E823A9
:10085000EC939FBF23E0222E312CC3E2D0E03AE399
:10086000432E512C612C712C80E00E948C00C10120
:100870000197F1F781E00E948C00CE010197F1F71A
:1008800080E00E948C00EEE9F0E06491EAE8F0E09C
:100890008491E82FF0E0EE0FFF1FEE58FF4F859197
:1008A000949100E412E42FE030E0462F0E943203DE
:1008B000611571058105910551F0DC01CB010196AF
:1008C000A11DB11D6C017D01FFE0FF2203C0C12C01
:1008D000D12C7601C701B60124E930E040E050E0B8
:1008E0000E940405CA01B9010E94150282E191E04B
:1008F0000E940302C701B601A30192010E940405F0
:10090000CA01B9010E94150287E191E00E94030229
:100910008AE191E00E9403020E94DE014B015C012A
:1009200084E6C82ED12CE12CF12C0E94DE01DC01E2
:10093000CB0188199909AA09BB09883E9340A105F2
:10094000B10558F021E0C21AD108E108F10888EE9B
:10095000880E83E0981EA11CB11CC114D104E104CF
:10096000F10419F70E94D4017FCFE7E2F1E013828E
:10097000128288EE93E0A0E0B0E084839583A683A2
:10098000B78384E091E09183808385EC90E0958744
:10099000848784EC90E09787868780EC90E0918B49
:1009A000808B81EC90E0938B828B82EC90E0958B36
:1009B000848B86EC90E0978B868B118E128E138E33
:1009C000148E0895A1E21A2EAA1BBB1BFD010DC0B7
:1009D000AA1FBB1FEE1FFF1FA217B307E407F507EF
:1009E00020F0A21BB30BE40BF50B661F771F881FCB
:1009F000991F1A9469F760957095809590959B0161
:100A0000AC01BD01CF010895052E97FB1EF40094A3
:100A10000E941B0557FD07D00E94E20407FC03D08B
:100A20004EF40C941B0550954095309521953F4F01
:100A30004F4F5F4F089590958095709561957F4FCA
:100A40008F4F9F4F0895EE0FFF1F0590F491E02DFB
:100A5000099481E090E0F8940C942E05F894FFCF6F
:100A6000000000006B01D4000301B2013401120147
:0E0A70002601696E2C2000636D000D0A000047
:00000001FF
