:100000000C94530D0C947B0D0C947B0D0C947B0D78
:100010000C947B0D0C947B0D0C947B0D0C947B0D40
:100020000C947B0D0C947B0D0C947B0D0C947B0D30
:100030000C947B0D0C947B0D0C947B0D0C947B0D20
:100040000C942C130C947B0D0C947B0D0C947B0D59
:100050000C947B0D0C947B0D0C947B0D0C947B0D00
:100060000C947B0D0C947B0D68396135003F006961
:10007000396135002E0061396132002C007A7A0036
:10008000200061345633006A5F006131002500436F
:1000900039006169004239553600697900673700D7
:1000A0007568006637006568006132513161314F13
:1000B0003100637400613456334437007472006158
:1000C0003256334437006472006535007A68006444
:1000D00038002F750063340064680062350074686E
:1000E000006139002F006035007A005F350066003E
:1000F0005E350073005D3100670061365C3361314D
:1001000000636800463955345432006F790059391C
:100110005235006F77005C36007368005B3900650C
:1001200072005A38006F005938006F680058370065
:100130006E78005731006400613356336132006AD3
:10014000005535006978005537006968005437005C
:1001500079005339553554320061790052370077B0
:10016000005131006B004D310062004937006E00D4
:1001700050310070004F310074004E34002F680081
:100180004C350076004B37006168004A37006D003F
:100190004837006C00473700656500463900616FDD
:1001A00000453752360075770045380075780044B1
:1001B00037007200413952360061770042390061E0
:1001C0006100413700616500613556324538006491
:1001D000757800204A415900204A5F002045484E6A
:1001E00000204E5F002045484D00204D5F0020411B
:1001F0004135520020525F00204548460020465FAE
:1002000000204959350020495F00204159434800EA
:1002100020485F0020534545350020435F002042C1
:100220004545350020425F002C002F002C002100A6
:100230000027003F002E002C0020002F002D003F43
:10024000003B002E003A004E4959354E003900411E
:1002500059355400380053454835562F554E003710
:1002600000534948364B530036004649593556002D
:10027000350046414F35520034005448524545350B
:100280000033005455483457003200574F354E0064
:1002900031005A49483552344F57003000534B52C1
:1002A0000053435200454535004541004159004542
:1002B0005900504C495900504C59004F52004F5270
:1002C00052004148520055525200414535520041BA
:1002D000525200204D4F5734535400204D4F535429
:1002E0005F00414135520041525F0020444845487B
:1002F000354E00205448454E5F0020534148354D4F
:100300000020534F4D45004B0051002053414936CA
:10031000440020534149445F00414844484552004D
:100320004F54484552002053484545350020534816
:10033000455F002050454534002050454F00204F78
:1003400057354E4C454500204F4E4C595F004700F5
:1003500047470042004242002044484145364E0093
:10036000205448414E5F004400444400204448412A
:10037000493452002054484549525F00202F4841DB
:10038000455A00204841535F0020444841593400F9
:1003900020544845595F00205745453500205745B2
:1003A0005F002020444849585300205448495300D6
:1003B00020424959330020425900202F48414535F9
:1003C000560020484156455F002F484545360048B5
:1003D000455F002057495835444800205749544844
:1003E0005F002041455A002041535F004F59004FA4
:1003F0005935004F49005200525200414F355200CA
:100400004F4F520020530020534300204958365A82
:10041000002049535F0041590050005050004348AC
:10042000004B530058004F48005A48005348004BB7
:1004300057005155004E5847004E47004E58004E49
:10044000475F004448005400545400544800454855
:100450000045004B00434B004C004C4C00414F52B8
:10046000004F52004552004149520045524500415B
:100470004952004E004E4E004D004D4D0045453650
:10048000004545005558004F4F0049485548340035
:1004900045550046005048002F480048004A004F8C
:1004A0000041480055004E004D00520059004C00DC
:1004B00056005A005300414F52495834004F524998
:1004C000005A005A5A00460057004B0043004B00A8
:1004D00049480049004145004100204D495900204C
:1004E0004D595F0045523552005552004948555705
:1004F00000455700592F554C0055414C0045523688
:1005000000495200495934004947480041593400D4
:1005100041490059555700594F555F00204A4959E4
:10052000002047490057554800574F4F00420050A0
:100530000044004700204D45453500204D455F00F3
:100540004958355A2F554D0049534D0052005752C6
:100550000020574552350020574F52005400570095
:100560005748004157004F5700204959360020494D
:100570005F005A482F550053494F00454500595FC9
:1005800000204141355200204152455F0044482F30
:100590005525005448455F004149495823454500C9
:1005A000412359004D004D425F0020415900204138
:1005B0005F00534849582F5500544941005345485E
:1005C0003400434500530043455F00460046460063
:1005D0005300535300204F355600204F465F0041D3
:1005E0004F344C00414C4C0057414F36540057415A
:1005F0005400574F3500574841004159355A454539
:1006000000415A5900474F4834570047484F00258A
:1006100000455F004141365354004153540041416D
:1006200034460041460041413500415200495900DD
:1006300059455F00534841480054494F00424545E1
:1006400035002042455F00414F524B00414C4B006A
:1006500020545558350020544F5F00414F3452000C
:100660004F52455F00574F5A005741535F004E4964
:10067000582F554E004E494F4E002F4855485700B1
:1006800057484F004958344A49480049474900549F
:100690004C00544C45004959345000595045002FE6
:1006A000554C004C455F004A4548354E0047454E85
:1006B000004F483557004F41004A00444700454528
:1006C0005A00454153455F00462F554C004546555D
:1006D0004C5F002F554C00554C5F00465548345434
:1006E00000464F4F54005548005548354C00554C76
:1006F0004C00530045535F0041593456495800415E
:100700005649004F57004F5F004F5953004F494320
:1007100000414F350041550020574F344E00204FC7
:100720004E4500414F3552004F555200204157353C
:100730005200204F5552004145345558004F550046
:10074000445548345700444F5F004E4A004E4745D9
:100750000050524F5734470050524F4700534958AA
:100760005A005345535F004441573400444F5700EB
:100770004548345200455252005041573500504FC1
:1007800057004E4157004E4F57002F4841573400F5
:10079000484F57004755483400474F4F00532543B3
:1007A000482F554E005354494F4E004E585A004E54
:1007B00047535F004B415700434F57005548354B57
:1007C000004F4F4B005955585723005523490045BA
:1007D00045004945002059555857230020552345C9
:1007E0000043485557230054552345005558572377
:1007F00000552341004948555735230055234500EE
:100800004F573523004F2345004159230041234FC3
:1008100000495935230049234500415936230041F9
:100820002345004F573423004F2341004F573423B3
:10083000004F234F00204548344E45450020414E8F
:10084000590055483544004F554C445F004B4148D2
:100850004D00434F4D455F005241593554005245BC
:1008600041540041592300412341004145344C4546
:100870004500414C4C59004159354400494544001C
:1008800020474548540020474554002F5500415902
:10089000344E4A2F5500414E4745004159344E4A87
:1008A00000414E47455F004F5735004F45004148D6
:1008B00000415F00414935520041524500534841D3
:1008C000454C005348414C4C0041593523004123CD
:1008D00049004959542F554C0049544C45004B523E
:1008E00000434852004148422F554C0041424C457C
:1008F00000415900414947480049590020415935B4
:10090000424C002041424C45004F57344C004F4C64
:10091000455F0020234959002023494500414800F4
:100920004F554748004959350055590055483552EB
:10093000005552455F0047004755455F0020594527
:1009400048355300205945535F00555736005545EB
:100950005F004649483453480047484F54490043D4
:1009600048005443480053494800434900535558F0
:100970003450454535524948414F52005355504532
:1009800052494F52004959524F0049524F004F4A65
:100990004545004F4759004B4E0043484E002053F9
:1009A00049590020534349004F483557004F554798
:1009B000485F00454834524545004552595F002084
:1009C000234148460020234F5547485F004948349B
:1009D00053005953004B5300584300414F345400C7
:1009E000204F554748540023454559002345595F3A
:1009F000004E004B4E0041413546004155474800EE
:100A00004F573523004F2355004D4959354B524F11
:100A100057004D4943524F00424545352525424533
:100A200045534545004242430041594A004147452C
:100A30005F004E58474552004E474552005448000B
:100A40004754485F00202345453545520020234543
:100A5000524500495923454500492359002F553532
:100A600053004F55535F0000002A0054007D00AE34
:100A700000D80002012C0174FFFF0430FBCF8888EE
:100A8000784595CD6A4485AA6865768888886855D2
:100A900086A98A566587A8CB8A5685BA8A788788B8
:100AA0008888665576885654656656554454665609
:100AB0005565565486464496EEFFED441052D9EFE4
:100AC000BD584566868877A8BA9B484453A7CBABE8
:100AD0006855658799898888A999887898A99978A7
:100AE00066879888686676888878676666666666C8
:100AF000767766676787776696B8FFCBFB9A8573CC
:100B00007858BA9D99898844645886A9AA888658D5
:100B100054768788999A7888676686889ACAAAA838
:100B2000888676888988896766656565666666569B
:100B30005555554477682B4475EAFFACDAEE5A32C6
:100B400065565576BACD8B8799482253776697AA12
:100B5000AB8A6676574475988898AABBAB89878814
:100B60005675888888886856555555555566566611
:100B7000565555446566554454555576B9FDFFFFA5
:100B8000EEDECDAB6845233244445576A9BABBAB03
:100B9000AA9A89685544445465668798A9AAAA9A6E
:100BA000A9AAAA9A898888888866555555554544C2
:100BB000545555454444545565666787B9ECFFFF65
:100BC000CF8A24013175DAFEFFCE8A5644546588F7
:100BD00099AAAABBBBAA8957455475A8CBDDDDBC31
:100BE0009A6856556587A9BBBB9A8866555566872E
:100BF00098999988675655354307E1A479BDE8FD72
:100C0000DACFDBFB9AAB68964554255244545665BF
:100C100087769A98AA99AA89A98988688668656753
:100C2000857779A987AAAA9AA99888886766555569
:100C300055545544455434555575A8DBFEEFBE8BCD
:100C4000685554545555668799AAABAA8966555577
:100C500055657687889999999A9999988888686747
:100C60006777766666666666666666666666666602
:100C700066666666666655556666769AA6BBCBBBA3
:100C8000DEEDDDDDBCBCBA9A9978686656555555DF
:100C9000555566656676778888889899AAAAAABA0B
:100CA000BAABAAAA99898868665555444444444415
:100CB0004444445445556532433443445555657660
:100CC000B9A89ABBCDDDDDEEEDDDDCBBAB99898843
:100CD0006656554544545555556566878888999993
:100CE000AAAABAABBBABBBBBAA9A89887866565591
:100CF0004444343333344355D7FFBF49336768899D
:100D0000A9DD8B242295AA9A8999583454A7BB8AC5
:100D10006866666597BAAB6855769889988868560C
:100D200075888968666666667688675655766776DA
:100D30006677666656666799999978777767667772
:100D40007777989999A9AA99999978777767667723
:100D50007777989999A9AA89999999AA9A99998935
:100D60007777776676777787999999AA9A99998903
:100D7000777777667677778688988888889989885C
:100D800088889988889899888888888888888888B1
:100D9000888878888777778888778788887766666D
:100DA000665655555566B8FEFFCE9A8948240120EF
:100DB00055665655552400888868867897898876C0
:100DC000768889998868568799A989665676888829
:100DD00089787788889988685575A99A8968556649
:100DE00086A99A885686888868757798AA988958B7
:100DF0005566B9AB8A5865967878B9B878897665BA
:100E0000784B87758BB576A8A9445D498B83957817
:100E10001A6C7AC2B4557B85A878988587C4858575
:100E20003BB84778A4946887667A7A8967C8A683AE
:100E30007BC5C1B49887B3889999A9DABCEDCDBBBD
:100E4000CCDCFDFFFFFFFFFFFFFFFFFFFFFFFFFF0A
:100E5000FF8C04000000000000000000001032457C
:100E6000130000000000000000000000001011103E
:100E7000111132545576769958658848A3AB76C9D6
:100E80004A21846944C74A52A94872ED8B78552497
:100E900032F4CF10FB4F5498687488568589568772
:100EA0007876989999896876676598784454B8AB4C
:100EB00069557688566598445576B9DCFEFFDECDD7
:100EC000AB9A885645232243548698A9AA9A9999A1
:100ED0008988564544545566768788989999A99982
:100EE000AAAAAA9A897866666666565555556666B0
:100EF0006656555555555545B6FFA5FB6A8495561A
:100F000073D969B88C56666744A68A96AA686576CE
:100F100046759988A98A677667659788C99AA9A945
:100F2000596589559888676646546655865676563B
:100F3000555665458758755595545C87A9A8ADBB2E
:100F4000BD9D9FABAB8A8B8888464744554455541A
:100F50006555878697889998A9999A9899989A99A2
:100F600099988A88887868665655455444544455FB
:100F700054554445645447A458D51FD78FD58FA5E1
:100F80008884349534B65AB76C8989875567448705
:100F9000589989999988868865889889AB9BB98979
:100FA00086586555545567668866875556644675F4
:100FB0004684597589746776666766778777898806
:100FC000898989A8999AA99ABA9A9AA989898879BE
:100FD000877767666776766777778897899999AA1A
:100FE000A99AAAA99A99899987787767777666677F
:100FF000667787778988893AFB986CA9A55A89A86A
:10100000586767555566567688768687545547558E
:10101000856566888AA8AA89988967888998BAABFD
:10102000BABCABAAAA7887786686888798887778CA
:101030005655564454454444A6AABBCBBDBDABAAA5
:10104000BA9A898888886666666667877888888895
:10105000877777777788888899AAAAAAAA99999989
:1010600088886666555555555555555555555555A8
:10107000655655555555456666F7FF9E5B7488560F
:101080005475DBBD884675584565B7CB8A6856767A
:10109000565487BAAB787766665696DABD8B567526
:1010A000677676989A886665776656668766556528
:1010B0006656656677886795DBFFFF4A020073FB1B
:1010C000FFAF48234275889998AAAA68252253B889
:1010D000EDBD69243275A9AB9A8888A989676687AE
:1010E0008989696766666655668678665555556668
:1010F0006666666666564567D7FFABCBAC892652F7
:10110000875686BACB8B7688484455768988B9ABA2
:1011100088676666457598999999BA8A87887877B5
:1011200076988987887866556566656666665665C9
:10113000565565566666668B43973B934C553F7490
:101140005958C803C726C318777A34C982A12B819E
:101150002D76A838787AE048A683473BA53A853BA8
:1011600098648956B88883678727770D735E72CC39
:1011700070D844475998587687889899AAAAAAAAF5
:1011800099898888776666554541B7DCBE99B9BBB1
:101190008A4543545524426576565465776686CB16
:1011A000EDCEBBBAAB996865667686778788898805
:1011B0007899999998999AB6755A4B99B5585B89C7
:1011C000A6966888A6784A8BA5A54A4BB7B47A4CF0
:1011D00087C3782C4BC5A43A5B99958849B7B46806
:1011E0008AA7B5784C9AA5785A87B5785C6BA678AB
:1011F0005AA7B3582D89D565666A66A798666A6648
:10120000A7A6676668A66A67A7986666A79AA5866E
:10121000667768A69A596689A789656886A67668FA
:101220008666AA68666A7686767A66A66A7A66A608
:101230008A767A8A956AA6898989A8999AA99ABA92
:101240009A9AA989898879877767666776766777B2
:10125000778897899999AAA99AAAA99A9989998721
:1012600078776777766667667787778988898989E7
:10127000A8999AA99ABA9A88888888888888888834
:1012800088888888888888888888888888888888DE
:1012900088888888888888888888888888888888CE
:1012A00088888888888888888888888888888888BE
:1012B00088888888888888888887887986887686D4
:1012C000866666767898888A998889797A8A9989EB
:1012D000A8989868888979787888868867688787E1
:1012E00085677A888A8B9AA999A998A9A9A898A8A4
:1012F00096867676787666679899A9AA9AAA898852
:1013000078677667768788999AA9AA99998977776D
:10131000667677778888A9AAA9AA89887877776670
:101320007677879999A9AA999A89887766879999EA
:10133000AAAAA99A888877D6FCCD9C888856447634
:10134000BAAB9989785644659899999989564564B4
:10135000878898999968556586A9BBAB8A6856664F
:10136000878888785655555565666656665555562C
:10137000456587886655559889AA99AA89896777A6
:101380006677768897A9A9AB9999877876677677F3
:101390009789A99AB9999978886676668788A9996C
:1013A000AA999A8888766766778688989889AA998C
:1013B000AA8989677766775587F48F958F23678623
:1013C00075FB79B829537666B89C78884565879708
:1013D000AA898756557688998A68665576AB98BAF1
:1013E00058655676998988685566669888776655EF
:1013F00056666686578756213244446486AA9A7791
:10140000B9FDFFCDBACBCB8A5565A7AA8998B9CCCF
:10141000AB68668878575597BAAB9A99AA9A686666
:10142000869899DBFDFFDFAB89886855557688780B
:1014300056666656342232000000000000000000AC
:10144000000000000000000000000000000000009C
:10145000000000000000000000000000000000008C
:10146000000000000000000000000000000000007C
:101470000000000000000000000000240027002AF7
:1014800000000000002300260029000000000025C5
:101490000028002B000404040404040404020202D3
:1014A00002020203030303030301020408102040A5
:1014B000800102040810200102040810200000002E
:1014C0000800020100000304070000000000000003
:1014D0000001020406080A0D1000000A01000A02B9
:1014E000000A03000A04000805000C0600080700B3
:1014F000010800010900010A00060BFF000C010CA5
:101500000D02000E010C0F010C10010C110006124F
:10151000000613000614000615FC0016010C170047
:10152000041800081900061A000A1B02001C010C0E
:101530001D02001E02001FFE0020000A21020022E0
:10154000FD0023000624FC002500082600082000DA
:101550000A20000ACF01C80101C501C20101BF0173
:10156000BC0101B901B40101B201AF0100AC01A994
:101570000101A601A101019E019B010198019501B4
:101580000193019001008E018B010088018501010A
:1015900083018001007D017A0101780175010073EA
:1015A000017001006E016B010069016601006401B8
:1015B0006101005F015C0100590152010150014DC0
:1015C00001004A0147010144014101013F01380185
:1015D00000360133010030012D01002A01270101ED
:1015E00025012201011F011C01011901160100132F
:1015F000010E01010B010401010101FA0001F800D3
:10160000F50000F300F00000EE00EB0001E900E659
:101610000000E400E10001DE00DB0001D800D5009D
:1016200000D200CF0001CC00C90000C600BF0000FE
:10163000BC00B50000B200A90000A600A30001A0F4
:10164000009D00019A0095000192008F00018D001D
:101650008A0000870082000080007D00017B007608
:10166000000074006F00006D00680000620A5D0AEF
:10167000590A530A4D0A450A400A3D0A380A320AF5
:101680002D0A290A250A180A120A090A050A000A57
:10169000FB09F609F309F109EC09E709E009DB099F
:1016A000D809D509D209CD09C509BF09BA09B309B5
:1016B000AD09A809A3099E099A09970993098E09FA
:1016C0008A0985097C096D096A09660962095F0949
:1016D000590952094E094A0944093D093809360990
:1016E00031092C092909250920091D09180913099F
:1016F0000E0909090309FC08F908F908F408F108BA
:10170000EC08E508E108DE08D908D208CE08C908C7
:10171000C308BD08B908B408B108AE08AB08A708EB
:10172000A1089B0896088E088B088B0886088008FD
:101730007C08770872086B08670863085E08580819
:1017400052084D08470842083D08350831082C0862
:10175000280823081F081A08160811080D08090888
:1017600005080008FC07F507F107EC07E707E107A4
:10177000DC07D507D207CF07CB07C507C107BC07D2
:10178000B807B407AF07AB07A5079D0799079407EC
:1017900090078A07860782077E0779077507700713
:1017A0006C07670762075D07580751074D074A072F
:1017B000460740073D07370732072C07280723074E
:1017C0001E071807150711070D0709070607030766
:1017D000FF06F806F406F206EE06E906E606E60659
:1017E000E106DB06D706D306CD06C806C206BE064E
:1017F000BB06B906B606B106AD06A706A3069F0648
:101800009B06960692068F068B06840680067A064D
:1018100075066E066906650660065B065606500686
:101820004C06470642063D063906340630062D06AC
:101830002A06260623061E061A06140611060F0699
:101840000B0605060106FA05F605F205EE05E805A4
:10185000E405DF05DA05D505D205D005CD05CB05B4
:10186000C705C505C205BD05B905B205AE05AA0582
:10187000A605A405A005980593058D058705810596
:101880007E057B05770572056E05690566056605AB
:101890006305630560055E055C055C05570551053C
:1018A0004E054C05480540053B0535053305330518
:1018B000310531052F052F052D052D052905250598
:1018C00021051C051705130510050C050805040561
:1018D0000105FD04F904F404F104EC04E904E40452
:1018E000DF04DA04D804D504D304D004CE04CE0433
:1018F000CC04CA04C804C804C604C604C304C10492
:10190000BD04B604B404B404B204B204B004B00418
:10191000AE04AE04AC04AC04AA04AA04A804A8044F
:10192000A604A604A404A1049F049F049D049D048E
:101930009B0498049504930490048A048704840407
:1019400081047D047A047804750473046F046F04C1
:101950006B0467046404640461045D045A0458045D
:101960005504530451044E044B044B0448044604EC
:10197000430443043F043C043904350432042F0477
:101980002C042C04290429042604260424042104FC
:101990001E041E041B0419041604160411040B046F
:1019A000070404040004FB03F803F603F303EF0346
:1019B000EC03EC03E703E203DB03D303CF03C90328
:1019C000C203BA03B603B003AA03A2039D0397039D
:1019D0009003890383037C0374036C036903670327
:1019E000600358035503530350034E0347033E035C
:1019F000390333032D0326032003190312030B03BA
:101A0000090307030103FA02F302EB02E702E20211
:101A1000DB02D302CF02CA02C602C202BE02BB026E
:101A2000B702B202AF02AC02A902A502A1029D0256
:101A30009B02920290028B028902830281027A0247
:101A40007802720270026A02680261025F02560244
:101A500054024F024D0247024502430241023F0237
:101A60003D023B02390239023702370235023502A4
:101A700033023302310230022E022C022A022802E3
:101A800024021E021A02140210020A0206020102B5
:101A9000FD01F801F401EE01EA01E501E101DC01DB
:101AA000D801D301291411241FBECFEFD8E0DEBF27
:101AB000CDBF11E0A0E0B1E0E0ECF8E202C005909B
:101AC0000D92A833B107D9F722E0A8E3B1E001C035
:101AD0001D92A63CB207E1F71DE0C3E5DDE004C0BE
:101AE0002197FE010E945814C235D107C9F70E9400
:101AF00076130C945E140C940000833081F028F46B
:101B0000813099F08230A1F008958730A9F08830B3
:101B1000B9F08430D1F4809180008F7D03C0809132
:101B200080008F7780938000089584B58F7702C0FE
:101B300084B58F7D84BD08958091B0008F7703C0F8
:101B40008091B0008F7D8093B0000895CF93DF9394
:101B500090E0FC01E755FB4E2491FC01EB56FB4E57
:101B60008491882361F190E0880F991FFC01E95866
:101B7000FB4EC591D491FC01E557FB4EA591B49164
:101B8000611109C09FB7F8948881209582238883CA
:101B9000EC912E230BC0623061F49FB7F89438812A
:101BA000822F809583238883EC912E2B2C939FBFCB
:101BB00006C08FB7F894E8812E2B28838FBFDF9162
:101BC000CF9108953FB7F89480913D0190913E01E7
:101BD000A0913F01B091400126B5A89B05C02F3FC1
:101BE00019F00196A11DB11D3FBFBA2FA92F982F43
:101BF0008827820F911DA11DB11DBC01CD0142E0BE
:101C0000660F771F881F991F4A95D1F708958F9205
:101C10009F92AF92BF92CF92DF92EF92FF926B01B1
:101C20007C010E94E20D4B015C01C114D104E1046E
:101C3000F104F1F00E94E20DDC01CB018819990951
:101C4000AA09BB09883E9340A105B10570F321E0C4
:101C5000C21AD108E108F10888EE880E83E0981EC8
:101C6000A11CB11CC114D104E104F10419F7DDCFAA
:101C7000FF90EF90DF90CF90BF90AF909F908F90AC
:101C800008958E70E82FF0E0E959F54F8591949111
:101C900020914401309145012A30310581F4209191
:101CA0008A0030918B008217930769F110928500AA
:101CB0001092840090938B0080938A0008952930BD
:101CC000310581F4209188003091890082179307B3
:101CD000D1F0109285001092840090938900809337
:101CE000880008952330310571F42091B40030E06C
:101CF000492F092E000C550B4217530721F0109263
:101D0000B2009093B400089580914301282F287465
:101D1000285C880F809343019091420197FF03C094
:101D20008F5F80934301990F90934201809141010D
:101D300087FF03C09F5F90934201880F26FD8F5F4E
:101D40008093410180914301089590E2282F2A95C4
:101D5000F1F79150D9F70895BF92CF92DF92EF92A9
:101D6000FF920F931F93CF93DF931F92CDB7DEB7F0
:101D7000F42E122F20E4829FC00111249C012958C7
:101D8000354F6901060F862F8F736017C1F0F6017A
:101D9000E80FF11DB4908B2D8E2169830E94410EB6
:101DA0008F2D0E94A50E8B2D82958F708E210E9403
:101DB000410E812F0E94A50E69816F5FE4CF0F90C5
:101DC000DF91CF911F910F91FF90EF90DF90CF9017
:101DD000BF900895EF920F93CF93DF93D82FC4E075
:101DE000C15061F00E94840E9FE0E92E0AE027E0D6
:101DF00047E0682F8D2F0E94AC0EF2CFDF91CF917C
:101E00000F91EF900895CF93C82FCC2341F080E03D
:101E10000E94A50E80E00E94A50EC150F6CFCF9182
:101E200008952F923F924F925F926F927F928F927E
:101E30009F92AF92BF92CF92DF92EF92FF920F9359
:101E40001F93CF93DF93CDB7DEB72C970FB6F894DF
:101E5000DEBF0FBECDBFE12CF12CCC24CA94DC2C0C
:101E60000CE616E11A82198260E070E0912C40E0E5
:101E700050E0F801259134913C832B83F801329690
:101E8000A590B490512C412C312C812C20E030E0D5
:101E9000EB81FC81E20FF31FE49139016C0C7D1C96
:101EA000AFEF6A167A0629F0680E791ED301FC910D
:101EB00001C0F0E2BFE97B2E7F0EB9E1B71520F03B
:101EC000F052E332D9F428C0E33219F4F13414F5B6
:101ED00019C0EF35A9F4FF23D1F0E0EEEF0FE230A7
:101EE000B0F0FC32A1F0E2EDEF0FE23080F0FF3312
:101EF00071F0F73261F0FA33A9F409C0EF3569F3F4
:101F0000EE23A1F0FF2391F0EF1749F00FC0552405
:101F1000539405C0FB35C4F7422E332E8F2E2F5F0E
:101F20003F4FB6CF215031095524539442175307E0
:101F30000CF040C0EB81FC81E20FF31FE491E11152
:101F400039C0F501B7011A821982082C000C9908D2
:101F50004491442339F1DF0111965D014332B9F414
:101F6000FD0144914423D1F04CE656E1FA01A591DC
:101F7000B491FD017490E72DF0E0E815F90509F042
:101F800086C1FD013196E491E11181C188C1FB0157
:101F9000EA5BFD4F40836F5F7F4F02C049823A8208
:101FA000F501D6CFFB01EA5BFD4F10826E197F0968
:101FB000952CA9010C5F1F4FFAE1043A1F0709F0A5
:101FC00058CF992011F0415051094115510509F49C
:101FD0002AC3E60EF71E21E7E216F1040CF023C334
:101FE00069817A816115710509F0AB01C40ED51EB6
:101FF0007FEFC716D70609F433CFFC01EC0DFD1DAA
:10200000208121112DCF80E190E09A838983612C7A
:10201000512C80E090E020E030E0A6E4EA2EA2E03F
:10202000FA2EF7014081442309F4E5C004E515E1E7
:1020300040E050E0412C1C861B86B9016A537E4F5C
:102040004B01DC01AA5BBE4FBC01695B7E4F7E8306
:102050006D83BD016250710978876F836F5F7F4F19
:102060007A876987F80125903490FC82EB8260E0E2
:1020700070E0EB81FC817190FC83EB837720B9F0F9
:10208000EFEBE70DEA3120F4F0E2AF2EA70C01C030
:10209000A72CFB01E20DF31DC4900A2C000CBB0819
:1020A000D12CAC14BD0419F46F5F7F4FE2CFEB85E8
:1020B000FC85E617F7070CF065C0F101E60FF71F86
:1020C000E491E1115FC0F8013296C590D4902401EB
:1020D000C818D908A20148195909F601E40DF51DDF
:1020E000B490BB2029F04491F20141932F01F2CF2B
:1020F000F8013496C490D12CF0E3CF0ED11C6C2C97
:102100005D2CEFEFEC93ED81FE811082E0EDE70DA9
:10211000EA3078F4E72D770CFF0BE056FB4EE491A4
:10212000EC93ED81FE81C082FB013196FC87EB8749
:1021300002C07C876B87F0E3CF16D10481F0698100
:102140007A81C616D70659F06C9167FD08C0EF81F9
:10215000F885608360E3E985FA85608311C0EB85CB
:10216000FC85EE0DFF1D319760816062603241F4A5
:10217000009721F0EF81F885608101C060E16C93E8
:10218000442443940B5F1F4FF6E10C361F0709F000
:1021900069CF69825A826B857C85672B71F4411007
:1021A0000CC080914401909145018A30910509F05D
:1021B00041C0809180008F7D43C0240F351F21379F
:1021C000310578F7433051057CF060E070E0FB01A9
:1021D000E80FF91FEA5BFE4FA081A28313826E5FB6
:1021E0007F4F6417750799F7840F951FAB85BC85E2
:1021F000EA0EFB1E16CFF901EA53FE4F4AE7408371
:102200004183428343832C5F3F4FF901EA53FE4FE2
:1022100010822F5F3F4F20383105B9F72FEF8038FC
:10222000910508F052C0FC01EA5BFE4F2083118249
:102230000296F5CF8930910531F4809180008F7737
:102240008093800007C0039729F48091B0008F7DB0
:102250008093B00060E0809144012C960FB6F89412
:10226000DEBF0FBECDBFDF91CF911F910F91FF90C9
:10227000EF90DF90CF90BF90AF909F908F907F9026
:102280006F905F904F903F902F900C94A60D4C5FF5
:102290005F4FAAE1443A5A0709F068CE81CEFA01AD
:1022A000329665907490DB01AA5BBD4F6A1A7B0A77
:1022B000BD0166547240F301EA0FFB1F44914423B1
:1022C00009F46ECEE491ED93F3CF009144011091A7
:1022D000450161E0802F0E94A60D0A30110599F496
:1022E0001092800088E592E09093870080938600AA
:1022F00081E180938100109285001092840080918A
:102300008000806215C009301105A9F41092800088
:1023100088E592E0909387008093860081E1809326
:102320008100109285001092840080918000806866
:10233000809380000EC00330110559F481E2809330
:10234000B00089E08093B10088E58093B4001092DA
:10235000B2008CEE8093430187E0809342018FECC2
:1023600080934101612C812CE6E07E2EC82CD12C7B
:10237000F601EA53FE4F8081882309F412CF8A3791
:1023800011F48FE04BC1833209F44AC1082E000CCE
:10239000990B81549109FC01EE0FFF1F8E0F9F1FB7
:1023A000FC01E752FB4E9490FC01E652FB4E149167
:1023B000FC01E552FB4E34913983C6010196FC01C4
:1023C000EA53FE4F208120532B83213011F0220F3E
:1023D0002B832B812A5FF601EA5BFE4FF080DC0144
:1023E000AA5BBE4F8C91882349F04FEFF41631F071
:1023F000803331F0263021F02B8302C06AE0F62EC4
:10240000260152E0450E511CD201AA5BBE4F0C9131
:102410008381882311F00F3F09F40AE017FF06C0FB
:102420000E94840E52E2A52E912C25C01230E1F4B8
:102430003B81363011F011E001C01FE0FB80FF0C42
:10244000FF0CFF2009F4ECC00E94840EE12E0BE08B
:102450002CE048E0682F892D0E94AC0E1F5F1031E0
:1024600009F41FE0FA94EDCF112319F089E10E94DD
:10247000030F40E2A42EB09000016B0CF60C1F1469
:1024800014F0FF24F394B02EB60C1B1414F0BB24EC
:10249000B394F201EA53FE4F6081662311F06A376C
:1024A00039F43B81313061F58CE30E94030F28C081
:1024B00039813130A1F0E62F062E000CFF0BE154DC
:1024C000F109CF01880F991FE80FF91FE552FB4E64
:1024D000E491F0E0E30FF11DF595E795E98317FD31
:1024E0000FC0E62F062E000CFF0BE154F109CF01BF
:1024F000880F991FE80FF91FE652FB4EE491E11196
:1025000061E6062E000C770B61547109FB01EE0F9A
:10251000FF1FE60FF71FE752FB4E6490691002C0E1
:102520003B8139833981632F70E0CB019595879585
:10253000009779F080589F4F0E943014462E3B81BF
:10254000313059F455245A94ECE0FE2EF0E4AF2ECD
:1025500006C0412C55245A9402C070E8572E312CE5
:10256000852D86958695282EA81608F42A2C882372
:1025700051F06FE0E62E022D2F2D4F2D632D892D6A
:102580000E94AC0E382E40E4A41659F00A2D021910
:102590005FE0E52E2B2D4B2D632D862D0E94AC0E7A
:1025A000382E5FEF551649F03B814981341728F4E6
:1025B000541857EC551508F4512C1F3F11F48EE1B7
:1025C0000BC01E3F11F48DE107C01D3F11F481E2E5
:1025D00003C01C3F19F48BE10E94EA0E3B8131508D
:1025E0003B833111BDCF612C26E0C901F901EE0F0B
:1025F000FF1FEC0DFD1DEA53FE4F3081393619F4F3
:10260000672C621A05C0383619F43AEF632E620E51
:1026100001979C0151F7113019F489E10E94030FD1
:1026200083948394A3CE2C960FB6F894DEBF0FBE8E
:10263000CDBFDF91CF911F910F91FF90EF90DF9071
:10264000CF90BF90AF909F908F907F906F905F9052
:102650004F903F902F9008951F920F920FB60F92B8
:1026600011242F933F938F939F93AF93BF938091A8
:10267000390190913A01A0913B01B0913C01309118
:10268000380123E0230F2D3720F40196A11DB11D41
:1026900005C026E8230F0296A11DB11D2093380125
:1026A0008093390190933A01A0933B01B0933C0190
:1026B00080913D0190913E01A0913F01B091400178
:1026C0000196A11DB11D80933D0190933E01A09301
:1026D0003F01B0934001BF91AF919F918F913F9186
:1026E0002F910F900FBE0F901F901895789484B57E
:1026F000826084BD84B5816084BD85B5826085BDFE
:1027000085B5816085BD80916E00816080936E008B
:10271000109281008091810082608093810080917D
:10272000810081608093810080918000816080932E
:1027300080008091B10084608093B1008091B000EE
:1027400081608093B00080917A00846080937A00E9
:1027500080917A00826080937A0080917A00816013
:1027600080937A0080917A00806880937A0010923A
:10277000C10061E08DE00E94A60DCAECD4E106EB39
:1027800014E142EAE42E44E1F42E50E0C52E50E07C
:10279000D52E66E0962E88248394FE018491F8015C
:1027A000A490F701B490BB20A1F081110E947D0D8F
:1027B000EB2DF0E0EE0FFF1FEF57FB4EA591B4910C
:1027C0008C91A82291E080E009F490E0A92EB82E27
:1027D00002C0A12CB12CFE018491F8016490F70194
:1027E00074907720B9F081110E947D0D872D90E0C3
:1027F000880F991F85579B4EFC01A591B4918FB707
:10280000F8949C91AB2819F06094692201C0692A60
:102810006C928FBF9092000181E091E00E94110FB5
:1028200064EF71E080E090E00E94070E809200016A
:1028300082E291E00E94110F68EE73E080E090E088
:102840000E94070EC114D10409F4A7CF0E94000012
:10285000A2CF83E090E090934501809344010895D6
:1028600097FB072E16F4009407D077FD09D00E943D
:10287000441407FC05D03EF4909581959F4F089530
:10288000709561957F4F0895AA1BBB1B51E107C04E
:10289000AA1FBB1FA617B70710F0A61BB70B881FF0
:1028A000991F5A95A9F780959095BC01CD0108957F
:1028B000EE0FFF1F0590F491E02D0994F894FFCFDF
:1028C0000748656C6C6F20206D6173746572212000
:1028D000486F772061726520796F7520646F696E2B
:1028E0003F004920616D2066696E652C2074686127
:0828F0006E6B796F752E00007C
:00000001FF
